:100000000C942A000C9447000C9447000C94470071
:100010000C9447000C9447000C9447000C94470044
:100020000C9447000C9447000C945D050C94470019
:100030000C9447000C9447000C9447000C94470024
:100040000C9447000C9447000C9447000C94470014
:100050000C94470011241FBECFE5D8E0DEBFCDBF12
:1000600010E0A0E6B0E0E0EAFBE002C005900D92EF
:10007000A63DB107D9F710E0A6EDB0E001C01D9292
:10008000A73DB107E1F70E94F5040C94CE050C944E
:100090000000843409F471C0853448F4823499F145
:1000A000833408F04DC0813409F083C00FC082361C
:1000B00051F1833620F4813609F07BC007C08336C6
:1000C00009F43EC0843609F074C057C0413069F469
:1000D0002AB381E090E0AC0102C0440F551F6A953D
:1000E000E2F7BA01622B6ABB08952AB381E090E07F
:1000F000AC0102C0440F551F6A95E2F7BA01609542
:1001000062236ABB0895413069F427B381E090E02F
:10011000AC0102C0440F551F6A95E2F7BA01622B89
:1001200067BB089527B381E090E0AC0102C0440FA3
:10013000551F6A95E2F7BA016095622367BB08957F
:10014000413069F424B381E090E0AC0102C0440F77
:10015000551F6A95E2F7BA01622B64BB089524B378
:1001600081E090E0AC0102C0440F551F6A95E2F7B0
:10017000BA016095622364BB0895413069F421B3EC
:1001800081E090E0AC0102C0440F551F6A95E2F790
:10019000BA01622B61BB089521B381E090E0AC010C
:1001A00002C0440F551F6A95E2F7BA0160956223B9
:1001B00061BB0895843409F471C0853448F48234F5
:1001C00099F1833408F04DC0813409F083C00FC029
:1001D000823651F1833620F4813609F07BC007C0A6
:1001E000833609F43EC0843609F074C057C04130EC
:1001F00069F42BB381E090E0AC0102C0440F551FBD
:100200006A95E2F7BA01622B6BBB08952BB381E0CC
:1002100090E0AC0102C0440F551F6A95E2F7BA01A5
:10022000609562236BBB0895413069F428B381E087
:1002300090E0AC0102C0440F551F6A95E2F7BA0185
:10024000622B68BB089528B381E090E0AC0102C046
:10025000440F551F6A95E2F7BA016095622368BBA7
:100260000895413069F425B381E090E0AC0102C00B
:10027000440F551F6A95E2F7BA01622B65BB0895DA
:1002800025B381E090E0AC0102C0440F551F6A9590
:10029000E2F7BA016095622365BB0895413069F4C5
:1002A00022B381E090E0AC0102C0440F551F6A9573
:1002B000E2F7BA01622B62BB089522B381E090E0BD
:1002C000AC0102C0440F551F6A95E2F7BA01609570
:1002D000622362BB0895843409F43DC0853440F440
:1002E0008234F9F0833450F5813409F040C00CC0F9
:1002F0008236B9F0833618F48136C9F505C08336E5
:10030000E9F08436A1F527C02BB381E090E0AC0181
:1003100002C0440F551F6A95E2F7BA0162276BBB12
:10032000089528B381E090E0AC0102C0440F551F4E
:100330006A95E2F7BA01622768BB089525B381E0A8
:1003400090E0AC0102C0440F551F6A95E2F7BA0174
:10035000622765BB089522B381E090E0AC0102C042
:10036000440F551F6A95E2F7BA01622762BB0895F0
:10037000843409F44EC0853440F4823431F183343E
:10038000B0F5813409F057C00EC08236F1F08336E3
:1003900020F4813609F04FC006C0833641F184361F
:1003A00009F049C036C029B381E090E0062E02C0B2
:1003B000880F991F0A94E2F730E08223932302C04A
:1003C000959587956A95E2F7089526B381E090E0C8
:1003D000062E02C0880F991F0A94E2F730E08223AC
:1003E000932302C0959587956A95E2F7089523B304
:1003F00081E090E0062E02C0880F991F0A94E2F770
:1004000030E08223932302C0959587956A95E2F7A1
:10041000089520B381E090E0062E02C0880F991F56
:100420000A94E2F730E08223932302C095958795E2
:100430006A95E2F7089580E008958434D9F0853410
:1004400038F4823499F0833498F48134A1F40CC0E8
:10045000823661F0833618F4813669F405C083363C
:1004600039F0843641F406C06ABB089567BB08952D
:1004700064BB089561BB08958434D9F0853438F4A1
:10048000823499F0833498F48134A1F40CC082361C
:1004900061F0833618F4813669F405C0833639F08B
:1004A000843641F406C06BBB089568BB089565BBF4
:1004B000089562BB08958434D9F0853438F48234C9
:1004C00099F0833498F48134A9F40CC0823661F039
:1004D000833618F4813671F405C0833639F08436DA
:1004E00049F406C089B3089586B3089583B3089587
:1004F00080B3089580E00895843409F1853438F498
:100500008234A9F08334B8F48134E1F40CC082362B
:1005100071F0833618F48136A9F405C0833659F09A
:10052000843681F40CC08BB380958BBB089588B35F
:10053000809588BB089585B3809585BB089582B367
:10054000809582BB0895843409F471C0853448F4E1
:10055000823499F1833408F04DC0813409F083C0AE
:100560000FC0823651F1833620F4813609F07BC00A
:1005700007C0833609F43EC0843609F074C057C002
:10058000413069F42BB381E090E0AC0102C0440F2C
:10059000551F6A95E2F7BA01622B6BBB08952BB326
:1005A00081E090E0AC0102C0440F551F6A95E2F76C
:1005B000BA01609562236BBB0895413069F428B39A
:1005C00081E090E0AC0102C0440F551F6A95E2F74C
:1005D000BA01622B68BB089528B381E090E0AC01BA
:1005E00002C0440F551F6A95E2F7BA016095622375
:1005F00068BB0895413069F425B381E090E0AC0117
:1006000002C0440F551F6A95E2F7BA01622B65BB21
:10061000089525B381E090E0AC0102C0440F551F5E
:100620006A95E2F7BA016095622365BB089541308F
:1006300069F422B381E090E0AC0102C0440F551F81
:100640006A95E2F7BA01622B62BB089522B381E09A
:1006500090E0AC0102C0440F551F6A95E2F7BA0161
:100660006095622362BB08956F70843451F18534C4
:1006700038F48234C1F08334E8F4813441F50CC09D
:10068000823689F0833618F4813609F505C0833641
:1006900089F08436E1F415C08BB3807F8BBB8BB3BC
:1006A000682B6BBB089588B3807F88BB88B3682BA9
:1006B00068BB089585B3807F85BB85B3682B65BB18
:1006C000089582B3807F82BB82B3682B62BB08959A
:1006D0006295607F843451F1853438F48234C1F0FE
:1006E0008334E8F4813441F50CC0823689F08336D6
:1006F00018F4813609F505C0833689F08436E1F4B3
:1007000015C08BB38F708BBB8BB3682B6BBB0895FD
:1007100088B38F7088BB88B3682B68BB089585B396
:100720008F7085BB85B3682B65BB089582B38F70CE
:1007300082BB82B3682B62BB0895CF93C82F6FE052
:100740000E941D028C2F64E041E00E94A3028C2FC6
:1007500065E041E00E94A3028C2F66E041E00E9428
:10076000A3028C2F67E041E00E94A302CF9108957D
:10077000CF92DF92FF920F931F93CF93DF93CDB76A
:10078000DEB760970FB6F894DEBF0FBECDBFF82E70
:10079000DE011196E0E6F0E080E101900D928150DB
:1007A000E1F7CC24DD248F2D6FE00E9434038F2DE0
:1007B0006C2D40E00E94DA0010E0012F0C5F8F2DBD
:1007C000602F0E94B8018823B9F48F2D602F0E94FA
:1007D000B8018823D1F3F601EE0FFF1FEE0FFF1FC4
:1007E000E10FF11D81E090E08C0F9D1FE80FF91FD4
:1007F00080818F3F21F00BC01F5F1430F1F6089409
:10080000C11CD11C94E0C916D10469F68FEF609623
:100810000FB6F894DEBF0FBECDBFDF91CF911F9111
:100820000F91FF90DF90CF90089582E460E041E067
:100830000E94DA008FE99FE00197F1F700C0000005
:1008400082E460E040E00E94DA008FE99FE00197D7
:10085000F1F700C000000895CF93C82F82E461E053
:1008600040E00E94DA006C2F62956F7081E40E9474
:1008700068030E94150481E46C2F0E9468030E94A3
:1008800015048FEC97E00197F1F700C00000CF91BD
:1008900008958FEF91EEA4E081509040A040E1F7E1
:1008A00000C0000081E464E041E00E94490081E46E
:1008B00065E041E00E94490081E466E041E00E9479
:1008C000490081E467E041E00E94490082E460E081
:1008D00041E00E94490082E461E041E00E94490059
:1008E00082E462E041E00E94490082E462E040E08C
:1008F0000E94DA0082E00E942C04AFE1BEE411976E
:10090000F1F700C0000088E20E942C048FEC97E011
:100910000197F1F700C000008CE00E942C04AFECBE
:10092000B7E01197F1F700C0000081E00E942C04AD
:100930008FE19EE40197F1F700C0000086E00E947D
:100940002C04AFECB7E01197F1F700C00000089558
:10095000CF93C82F82E461E041E00E94DA006C2F5F
:1009600062956F7081E40E9468030E94150481E41F
:100970006C2F0E9468030E941504CF910895CF93B5
:10098000DF93EC018881882331F021960E94A8042E
:1009900089918823D9F7DF91CF91089581E00E9452
:1009A0002C048FE19EE40197F1F700C00000089548
:1009B000982F9150923068F4653158F4662349F0CD
:1009C000813019F4862F815802C0862F81540E94ED
:1009D0002C040895803420F080E80E942C040895AF
:1009E00080648F770E942C0408951F93CF93DF9328
:1009F0000E94490483E40E949D0380E561E00E9417
:100A0000980580E790E00E94BF0482E061E00E94C8
:100A1000D8048AE790E00E94BF048AE890E00E9430
:100A2000BF04CAE01AE083E40E94B8038F3F01F1DB
:100A3000853379F40E94CE048DE890E00E94BF04D3
:100A400082E061E00E94D8048CE990E00E94BF043B
:100A50002EC00E94CE048DEA90E00E94BF0482E086
:100A600061E00E94D8048AEB90E00E94BF041FC09E
:100A70008091D600843698F0C1501092D60082E062
:100A800060E10E94D8048C2F612F0E94C205D92FEB
:100A9000805D0E94A8048D2F805D0E94A804CC2355
:100AA00011F60E94CE048BEC90E00E94BF0480E01F
:100AB00090E0DF91CF911F9108951F920F920FB692
:100AC0000F9211248F938091D6008F5F8093D60070
:100AD0008F910F900FBE0F901F9018956130B1F459
:100AE00093B7916093BF93B79D7F93BF93B7946083
:100AF00093BF93B79F7B93BF93B7977F93BF819526
:100B000082BF789489B7816089BF089593B7916057
:100B100093BF93B79D7F93BF93B7946093BF93B7F1
:100B20009F7B93BF93B7977F93BF819582BF0895B3
:100B30006130B1F493B7916093BF93B79D7F93BF3A
:100B400093B7946093BF93B79F7B93BF93B798601D
:100B500093BF12BE8CBF789489B7826089BF089515
:100B600093B7916093BF93B79D7F93BF93B7946002
:100B700093BF93B79F7B93BF93B7986093BF12BE09
:100B80008CBF0895991B79E004C0991F961708F04F
:100B9000961B881F7A95C9F780950895F894FFCF22
:100BA0003738392F3435362A3132332B41303D2D09
:100BB00033202B203F203D20380052656D61696E47
:100BC000696E672054696D652000313000436F7293
:100BD0007265637420416E7377657200436F6E6750
:100BE000726174756C6174696F6E73210057726FF6
:100BF0006E6720416E737765720054727920416789
:100C000061696E204C61746572210047616D6520D9
:060C10004F766572210021
:00000001FF
